:0200000280007C
:0800000000800820AD0108009A
:1001000080B483B000AF0346FB71FB79002B06D1AE
:10011000094B80221A60094B80221A6008E0064BC6
:100120004FF480721A60054B4FF480721A6000BF62
:100130000C37BD4680BC704700140E4010140E40B2
:1001400080B483B000AF03460A46FB711346BB710F
:10015000FB79002B0AD1BB79002B03D00C4B8022FA
:100160001A6010E00B4B80221A600CE0BB79002B68
:1001700004D0074B4FF480721A6004E0054B4FF433
:1001800080721A6000BF0C37BD4680BC704700BF4C
:1001900030140E4034140E4080B400AF00BFFDE7B1
:1001A00080B400AF00BFBD4680BC704780B500AFD3
:1001B0000020FFF7A5FF0120FFF7A2FF012100208B
:1001C000FFF7BEFF00210120FFF7BAFFFFF7E4FFB2
:0401D00000BF80BD2F
:1001D4002CFFFF7F01000000BCFFFF7F0880978099
:1001E400BCFFFF7F01000000C0FFFF7F08849780F1
:0801F400E0FFFF7F01000000A5
:1001FC0050494E5F313150494E5F313201070D008D
:06020C00000000000000EC
:040000038000010078
:00000001FF
