:020000040800F2
:0800000000000120B902000814
:1002000080B483B000AF0346FB710F4B1B6843F013
:1002100001030D4A1360FB79002B08D10B4B1B68BF
:1002200023F4404343F48043084A136008E0074B3B
:100230001B6823F4405343F48053044A136000BF07
:100240000C37BD4680BC7047303802400000024089
:1002500080B483B000AF03460A46FB711346BB71FE
:10026000FB79002B0BD1BB79002B03D00C4B8022E8
:100270001A6010E00A4B4FF400021A600BE0BB79E1
:10028000002B03D0064B40221A6004E0044B4FF4CD
:1002900080021A6000BF0C37BD4680BC704700BFAB
:1002A0001800024080B400AF00BFFDE780B400AF8B
:1002B00000BFBD4680BC704780B500AF0020FFF78F
:1002C0009FFF0120FFF79CFF01210020FFF7C0FFE7
:1002D00000210120FFF7BCFFFFF7E4FF00BF80BD56
:1002E00020FFFF7F01000000BCFFFF7F0880978098
:1002F000BCFFFF7F01000000C0FFFF7F08849780E4
:08030000E0FFFF7F0100000097
:1003080050494E5F313150494E5F313201070D007F
:06031800000000000000DF
:0400000508000200ED
:00000001FF
